:100000000C9446000C9465000C9465000C946500FB
:100010000C9465000C9465000C9465000C946500CC
:100020000C9465000C9465000C94A0000C94650081
:100030000C9465000C9465000C9467000C946500AA
:100040000C9465000C9465000C9465000C9465009C
:100050000C9465000C9465000C9465000C9465008C
:100060000C9465000C9465000C9465000C9465007C
:100070000C9465000C9465000C9465000C9465006C
:100080000C9465000C9465000C94650011241FBE4F
:10009000CFEFD0E1DEBFCDBF12E0A0E0B1E0ECE2F7
:1000A000F2E000E00BBF02C007900D92A03CB10748
:1000B000D9F712E0A0ECB2E001C01D92A83CB10754
:1000C000E1F70E94DE000C9414010C9400001F92D2
:1000D0000F920FB60F920BB60F9211248F93EF93DE
:1000E000FF938091C7028F3F11F418BA02C080E1DC
:1000F00088BB8091C70280958093C702E091C202BD
:10010000F091C302E852FE4FE081F0E0EA5DFE4F5D
:1001100080818DBDE091C202F091C302E852FE4F92
:10012000E081F0E0E158FE4F80818CBDFF91EF91BE
:100130008F910F900BBE0F900FBE0F901F901895D0
:100140001F920F920FB60F920BB60F9211248F933E
:100150009F93EF93FF938091C0028F5F8093C002C3
:100160008091C0028837E9F41092C0028091C102E8
:100170008F5F8093C1029091C102E091C202F09121
:10018000C302E25FFD4F8081981759F48091C2024B
:100190009091C30201969093C3028093C202109281
:1001A000C10280E384BDFF91EF919F918F910F90E9
:1001B0000BBE0F900FBE0F901F90189580E187BB6C
:1001C00084E085BD8DE784BD1FBC82E08EBDE091DB
:1001D000C102F0E0E852FE4FE081F0E0EA5DFE4F40
:1001E00081818DBDE091C102F0E0E852FE4FE081D7
:1001F000F0E0E158FE4F81818CBD84E487BF7894A4
:1002000020E931E08091C2029091C302C697D1F7F4
:100210001092C3021092C2028FEF9FEFF901319743
:0C022000F1F70197D9F7EECFF894FFCF6B
:10022C000003111F2B37424D57616A727A81898FF7
:10023C00969CA1A7ACB0B5B9BDC1C4C8CBCED1D327
:10024C00D6D8DADCDEE000717981888F959BA1A687
:10025C00ABB0B4B8BCC0C4C7CACDD0D3D5D8DADC27
:10026C00DEE0E2E3E5E6E8E9EAECEDEEEFF0F1F1F1
:10027C00F2F3F4F4F5F6F6F7F7F8F8F8F9F9FAFA08
:10028C00FAFBFBFBFBFCFCFCFCFCFDFDFDFDFDFDA2
:10029C00FDFEFEFEFEFEFEFEFEFEFEFEFEFFFF0A65
:1002AC00F3EC738D41958E31838947C0F9F6B946CD
:1002BC00A0CAC79841C423607C7A5C22D065E34C09
:1002CC00A0E2112F3E3D2D11E7B27125D070089799
:1002DC001E9E1688F358B81267B8034B8FCE0B438B
:1002EC0079ACDB09335B81A5C7E705213C556D84EF
:1002FC0099ADC0D2E3F30210383B363436383B3676
:10030C0000383B42403B39383600383B36343638BF
:10031C003B3600383B424047004745444544404546
:10032C00444244423B00474544454440454904024D
:10033C000401010402040204020402040101040287
:10034C00040204010104020402040204020A02046D
:10035C000101010104040101010102020401010176
:10036C000102020C1E232625232A282523262522BA
:10037C00241E001E232625232A2D2C2B272B2A292D
:10038C001E2623262A262A262B2A2925262A291EFA
:10039C00262A00262A262A262D2C2B272B2A291EF4
:1003AC0026230406020408040C0C0602040804109C
:1003BC0004040602040804080408040602040804E1
:1003CC0014040804080408040804060204080410B1
:1003DC0004040804080408040804060204080414AD
:00000001FF
